:020000040800F2
:10000000D075002051020008670C0008630C00083E
:10001000650C0008A3040008ED15000800000000AE
:10002000000000000000000000000000B10E000809
:10003000C10B000800000000E10C00089D0F000843
:100040006B0200086B0200086B0200086B020008DC
:100050006B0200086B0200086B0200086B020008CC
:100060006B0200086B0200086B02000835090008EB
:10007000450900086B0200086B0200086B020008CB
:100080006B0200086B0200086B0200086B0200089C
:10009000A50400086B0200086B0200086B02000850
:1000A0006B0200086B0200086B0200086B0200087C
:1000B0006B0200086B0200086B0200086B0200086C
:1000C0006B0200086B0200086B0200086B0200085C
:1000D0006B020008D51200086B0200086B020008D2
:1000E0006B0200086B0200086B0200086B0200083C
:1000F0006B0200086B0200086B0200086B0200082C
:100100006B0200086B0200086B0200086B0200081B
:100110006B0200086B0200086B0200086B0200080B
:100120006B0200086B0200086B0200086B020008FB
:100130006B0200086B0200086B0200086B020008EB
:10014000D90400086B0200086B0200086B0200086B
:100150006B020008550900086B020008B113000883
:100160006B0200086B0200086B0200086B020008BB
:100170006B0200086B0200086B0200086B020008AB
:100180006B0200086B0200082912000871120008B7
:100190006B0200086B0200086B0200086B0200088B
:1001A00000000000000000006B02000800F002F8F0
:1001B00000F03EF80AA090E8000C82448344AAF1C3
:1001C0000107DA4501D100F033F8AFF2090EBAE8C1
:1001D0000F0013F0010F18BFFB1A43F0010318477B
:1001E000C04D0000E04D0000103A24BF78C878C12F
:1001F000FAD8520724BF30C830C144BF04680C602D
:10020000704700000023002400250026103A28BF74
:1002100078C1FBD8520728BF30C148BF0B60704778
:100220001FB503F006FF00F0ADF81FBD10B510BDFF
:1002300000F0E4F81146FFF7F3FF03F01FFE00F0B3
:1002400002F903B4FFF7F2FF03BC00F0D1F800009D
:100250000948804709480047FEE7FEE7FEE7FEE75A
:10026000FEE7FEE7FEE7FEE7FEE7FEE70448054996
:10027000054A064B704700007D100008AD010008DC
:10028000D06F0020D0750020D0710020D0710020E8
:10029000032A40F2308010F0030C00F0158011F8B2
:1002A000013BBCF1020F624498BF11F801CB00F88A
:1002B000013B38BF11F8013BA2F1040298BF00F8DE
:1002C00001CB38BF00F8013B11F0030300F025809B
:1002D000083AC0F0088051F8043B083A51F804CBC2
:1002E000A0E80810F5E7121D5CBF51F8043B40F888
:1002F000043BAFF30080D20724BF11F8013B11F893
:1003000001CB48BF11F8012B24BF00F8013B00F8D6
:1003100001CB48BF00F8012B704710B5203AC0F060
:100320000B80B1E81850203AA0E81850B1E81850F6
:10033000A0E81850BFF4F5AF5FEA027C24BFB1E833
:100340001850A0E8185044BF18C918C0BDE81040A4
:100350005FEA827C24BF51F8043B40F8043B08BFAD
:100360007047D20728BF31F8023B48BF11F8012B74
:1003700028BF20F8023B48BF00F8012B70477047A8
:100380007047704770B5064C7C44064D7D4403E0D1
:10039000206820448047241DAC42F9D170BD000084
:1003A000344C0000344C000010B500F009F8BDE8F2
:1003B0001040AFF30080002801D000F019B870475A
:1003C00010B5002102A000F047F8012010BD000088
:1003D0005349475056464E3A20507572652076690B
:1003E000727475616C20666E2063616C6C6564006C
:1003F00001491820ABBEFEE726000200754600F05A
:100400004BF8AE4605006946534620F00700854686
:1004100018B020B5FFF72AFFBDE820404FF00006D6
:100420004FF000074FF000084FF0000B21F00701DC
:10043000AC46ACE8C009ACE8C009ACE8C009ACE81F
:10044000C0098D46704710B50446AFF300802046C2
:10045000BDE81040FFF7F5BE70B505460C460A2012
:1004600000E06D1C00F011F835B128780028F8D1B3
:1004700002E0641C00F009F814B120780028F8D1DB
:10048000BDE870400A20AFF3008008B569468DF8DA
:1004900000000320ABBE08BD00487047EC080020F8
:1004A0007047FEE710B50B4C86B00221204600F0E5
:1004B000D1F840B10221204600F02AF86A46002116
:1004C000204600F097F901F041F9694601F0C6F9BC
:1004D00006B010BD0064004010B50C4C86B002217F
:1004E000204600F0B7F840B10221204600F010F895
:1004F0006A460021204600F07DF901F027F969469F
:1005000000F5217001F0AAF906B010BD00680040A6
:1005100030B5082310240422B1F5007F1DD010DC73
:10052000202929D007DC012921D0042922D008293B
:1005300000D1C46030BD402920D0B1F5807FF9D111
:100540000BE00025B1F5004F06D008DCB1F5806F57
:1005500003D0B1F5006FEDD18561426030BDB1F5DA
:10056000803F0DD0B1F5003FF8D1446030BD054962
:10057000816030BDC36030BD036130BD046130BDFA
:10058000436030BD01010100F0B5827A2F4D012199
:1005900091402A6842F001022A602C4E1C363268D3
:1005A0008A433260294A047B294B0C32A4B914686F
:1005B0008C4314604488C78844EA0744877A03EB75
:1005C000C707C7F840460488878844EA0744877A03
:1005D00003EBC707C7F84446047B012C12D114680B
:1005E0000C431460847A026803EBC4044FEA32427D
:1005F000C4F84026847A426803EBC4034FEA3242CF
:10060000C3F84426114AC37A121D002B136806D082
:100610000B4313600D4A0389143213B104E08B437A
:10062000F7E713688B4313600389012B02D113682A
:100630000B431360407B012802D1306808433060CF
:10064000286820F001002860F0BD0000006600402E
:10065000006000400246002053690B424AD0B1F5C9
:10066000807F3BD013DC08292ED007DC012926D05F
:10067000022927D004293DD1D0682BE0102925D0AC
:10068000202926D0402935D11069102130E0B1F55C
:10069000004F2BD00BDCB1F5007F22D0B1F5806F7D
:1006A00022D0B1F5006F25D19069702120E0B1F51D
:1006B000803F11D0B1F5003F1CD15068E5E790684C
:1006C0000D4915E0D06802E0D068DEE7106903212B
:1006D0000EE0106908210BE05068FBE790690121EA
:1006E00006E09069022103E0906900E0506804216F
:1006F00000F019B97047000001010100002A4269A9
:1007000001D00A4300E08A434261704710B5036894
:10071000002223F002030360036843F00103036037
:100720004FF6FF7300E0521C4468E40701D19A427F
:10073000F9D14268D2073ED08A79012A02683CD0BA
:1007400022F080020260CA79012A026838D022F0C1
:10075000400202600A7A012A026834D022F02002A4
:1007600002604A7A012A026830D022F01002026048
:100770008A7A012A02682CD022F008020260CA7A22
:10078000012A026828D022F0040202608A78CC781C
:10079000920742EA04620C7942EA04424C790988E1
:1007A00042EA0452491E0A43C261016821F0010174
:1007B0000160002114E0002010BD42F08002C1E77A
:1007C00042F04002C5E742F02002C9E742F01002C1
:1007D000CDE742F00802D1E742F00402D5E7491C18
:1007E0004268D20701D09942F9D14068C007E2D1EE
:1007F000012010BD10B500EB0113D3F8B04114F087
:1008000004041472D3F8B04133D0E4085460D3F830
:10081000B04104F002045472D3F8B44104F00F0460
:100820009472D3F8B441240AD474D3F8B841D47282
:10083000D3F8B841240A1473D3F8B841240C547384
:10084000D3F8B841240E9473D3F8BC41D473D3F8D1
:10085000BC41240A1474D3F8BC41240C5474D3F85A
:10086000BC311B0E937439B1016941F02001016163
:1008700010BD640D1460CAE7C16841F02001C16079
:1008800010BD30B50246002093685B0108D4906823
:10089000000101D5012003E09068C00037D5022097
:1008A00002EB0012D2F8803103F00103C2F880316C
:1008B0000B7A73B3D2F880414D681C434B7A43EAFC
:1008C000C5031C43C2F880418B7A03F00F038B727F
:1008D000D2F8843123F00F03C2F88431D2F8843186
:1008E0008C7A2343C2F88431CB7ACC6843EA042360
:1008F000C2F88831CB7B096943EA0121C2F88C1127
:10090000D2F8801141F00101C2F8801130BD0420FD
:1009100030BDD2F880314C7A23430C8843EA4453EB
:10092000C2F88031D0E7024600200A4200D0012000
:10093000704700000149024800F014B82000001080
:10094000106002400149024800F00CB80008001095
:10095000286002400149024800F004B8000020204D
:10096000A0640240074A904201D2074801E00548CE
:100970001038064A8B0001EA020101D5C1607047B8
:100980008160704710640240006002407D0F7D0F5F
:100990000029016802D041F0010101E021F00101CC
:1009A000016070472DE9F043016821F00101016009
:1009B0000021016041608160C160016121214161CC
:1009C0003C493C4A3D251039904202D18D60BDE83A
:1009D000F083384A4FF474661832904201D18E6029
:1009E000F5E7344A4FF474173032904201D18F60EA
:1009F000EDE7304A4FF0746C4832904202D1C1F8B2
:100A000008C0E4E72B4B2C4A6033984201D1CA60FE
:100A1000DDE7284C294B7834A04201D1CB60D6E7E2
:100A2000DFF89080264C08F19008404501D1CC6059
:100A3000CDE7DFF880804FF03D5908F1A808404528
:100A400002D1C1F80C90C2E71E49DFF8788008395E
:100A5000404501D10D60BAE71A4D1835A84201D1C1
:100A60000E60B4E7174D3035A84201D10F60AEE7F4
:100A7000144D4835A84202D1C1F800C0A7E7114D76
:100A800010496035091FA84201D10A609FE70D4A4D
:100A90007832904201D10B6099E70A4A9032904235
:100AA00001D10C6093E7074AA83290428FD1C1F878
:100AB00000908CE7106002403D000020400F0020B5
:100AC00000003D20106402400029016802D041F47A
:100AD000802101E021F4802101607047002A026832
:100AE00002D042F4002201E022F4002202600161FF
:100AF0007047406880B270470146002009680903CA
:100B000000D50120704700000246094B00209A42A0
:100B100001D2084A01E0064A103A8B0001D552681A
:100B200000E01268044B1A400A4200D001207047CE
:100B300010640240006002407D0F7D0F0B0607D558
:100B4000436912B143F0800301E023F08003436165
:100B5000802908D0002A026801F01E0101D00A4352
:100B600000E08A430260704730B50368124ACC68DF
:100B700013400A682243D1E905452C432243CC693E
:100B800022430C6A22434C6A22438C6A22434C6BF8
:100B900022438C6B22431A430260426922F007030E
:100BA000D1E90B2422431A4342610A6942604A6830
:100BB00082608968C16030BD3F801CF04160704731
:100BC0007047F0B5002201274FF0030C0B6807FABD
:100BD00002F52B40AB422CD1066853000CFA03F40B
:100BE000A64306600E79D0F800E09E4046EA0E0665
:100BF00006600E79012E01D0022E12D18668A6431E
:100C000086604E79D0F808E09E4046EA0E0686607F
:100C10004668AE43466045688E799640B6B2354325
:100C20004560C568A543C560CC799C40C3681C433A
:100C3000C460521C102AC9D3F0BD4B07DB0E9A408A
:100C4000C90810B500EB8100016A0F249C40A14344
:100C50000162016A1143016210BD41837047018343
:100C60007047FEE7FEE7704730B50F23C278017882
:100C70000125FAB1144A126801F1E02102F4E062A0
:100C8000C2F5E062C2F30722C2F10404D340427805
:100C9000A24084781C401443220181F8002400788B
:100CA00000F01F018D404009800000F1E020C0F8F5
:100CB000005130BD01F01F0085404809800000F15F
:100CC000E020C0F8805130BD0CED00E0024908433F
:100CD00002490860704700000000FA050CED00E0D2
:100CE00070470000044A0029116801D0014300E068
:100CF000814311607047000030380240044A0029E7
:100D0000116801D0014300E0814311607047000089
:100D100040380240044A0029116801D0014300E034
:100D2000814311607047000020380240044A0029C6
:100D3000116801D0014300E0814311607047000059
:100D400044380240044A0029116801D0014300E000
:100D500081431160704700002438024070B5204B79
:100D60001968204C11F00C0104D01F4E042903D047
:100D7000082903D004601BE0066019E0184A121F1E
:100D80001168C1F38055116801F03F0115B1B6FB40
:100D9000F1F101E0B4FBF1F114681268C4F38814B6
:100DA0006143C2F30142521C5200B1FBF2F10160F7
:100DB00019680F2202EA11110C4A545C0168E140E3
:100DC00041601C68072505EA9424145D21FA04F4A7
:100DD00084601B6805EA5333D25CD140C16070BDAA
:100DE000083802400024F400001BB7000000002077
:100DF000F0B5002858D0002956D00278437842EA4E
:100E00000322C2F30A030B8042788478D20842EAB4
:100E10004412C2F30A024A808478C578A40944EADD
:100E20008504057944EA8524C4F30A048C80057995
:100E300046796D0845EAC615C5F30A05CD804679A1
:100E4000C6F301168E724679B609CE728679C779D5
:100E500046EA07268E81067A477A46EA0726CE8139
:100E6000867AC77A46EA07260E82067B8E74467B10
:100E7000CE74867BC77B46EA07268E82067C407C42
:100E8000A3F580630B80A2F580624A80A4F580649C
:100E900046EA00208C80A5F58065CD80A0F58060B5
:100EA0000881024901200870F0BD000024000020E4
:100EB000704700001CB500212E4A00910191106876
:100EC00040F4803010604FF4A043106800F400300C
:100ED00001900098401C0090019810B90098984229
:100EE000F3D11068800342D50120019021484030A1
:100EF000016841F0805101601F49086840F440409A
:100F000008601C48083003680360036843F400432A
:100F10000360036843F4A0530360041F174B23606E
:100F2000136843F08073136013689B01FCD50A6853
:100F300042F480320A604A68D203FCD50A6842F45F
:100F400000320A604A689203FCD50D4A40F20571EE
:100F50001160016821F003010160016841F00201A4
:100F600001600168C1F381010229FAD11CBD019120
:100F70001CBD00000038024000700040062D4007F4
:100F8000003C02404FF0E0210428086903D020F023
:100F900004000861704740F00400FAE770B50120D2
:100FA00080F3108802F0F6F90168491C016002F034
:100FB0008BF901680968884728480078C0070FD175
:100FC000264802F050FB58B125482649022302C0AA
:100FD0004FF4C262244902F034FB2048AFF3008092
:100FE0001F4801680968884701F020FD01684968C9
:100FF00088471E4800F0B4FC1D480078C00718D18F
:101000001B4802F030FBA0B11A4C1B4800210A46D5
:10101000206001EB4103002023441D18401C85F88B
:1010200034200328F9DB491C0229F2DB1048AFF316
:101030000080104801680968884701F0FBFD00F056
:10104000DFFD01F0F3FC00F0DBFD00F07FFB00F0C2
:101050006AFB002080F3108870BD00005000002063
:101060009C290020984E000819400008F00000203C
:1010700068000020606F0020504F0008124810B533
:10108000016841F4700101601048016841F00101FC
:1010900001600E4A00210832116002680C4B1A40B0
:1010A0000260031D0B4A1A60026822F4802202606B
:1010B00006480C300160FFF7FDFE03494FF0006069
:1010C0008039086010BD000088ED00E00038024063
:1010D000FFFFF6FE103000240029018802D041F005
:1010E000010101E021F001010180704730B5028C5F
:1010F00022F001020284028C8388048B22F0020217
:1011000024F073050C882C438D8915434A882A43A3
:101110000C4DA84202D00C4DA8420DD122F008057A
:10112000CA8923F440732A4322F004058A882A439B
:101130000D8A1D434B8A2B43838004838968416356
:10114000028430BD000001400004014070B5028CF3
:1011500022F480520284058C8288838B0C8823F4CD
:10116000E6464FF6FF7303EA0424344325F40056A1
:101170008D8903EA053535434E8803EA06362E434A
:10118000084DA84202D0084DA84205D122F480455E
:101190000A8A03EA82122A4382808483896801646E
:1011A000068470BD000001400004014030B5028893
:1011B000164C174DA0420DD0A8420BD0B0F1804F75
:1011C00008D0144B984205D0134B984202D0134BD1
:1011D000984203D122F070034A881A43104B984278
:1011E00006D0104B984203D022F440730A891A4368
:1011F00002804A68C2620A880285A04201D0A842E1
:1012000001D1897A01860121818230BD000001402F
:10121000000401400004004000080040000C0040B1
:10122000001000400014004070B5104E40F22551EF
:10123000304600F043F9351D60B12C8800F028FBE2
:1012400090F80A16445490F80A16491C01F07F01E0
:1012500080F80A164FF41871304600F02FF910B1DB
:10126000304600F0BFF93088288870BD0078004013
:1012700038B5154C40F22551204600F01FF9251DC8
:10128000B0B128888DF8000010480078C00709D157
:101290000E4802F0E8F928B10D4801F0DDFB0B48DB
:1012A000AFF300800A4801236A46002100F0FDFCEC
:1012B0004FF41871204600F001F910B1204600F0FB
:1012C00091F92088288838BD007C0040600000200B
:1012D000C035002070B5314C40F22551204600F059
:1012E000F4F820B12046BDE8704000F07BB940F230
:1012F0002441204600F0E9F800284ED0204600F0B6
:1013000071F9274C2046FFF7F7FB264D264E0028A3
:101310004FF00001204621D0FFF73AFB2046FFF7AF
:10132000E8FBC0F12400688024212046FFF746FC3A
:10133000206820F40020206031462046FFF712FB91
:1013400001212046FFF724FB6888122825D1174980
:1013500001F13A00BDE87040FFF74ABDFFF718FB06
:101360002046FFF7C6FBC0F12400688024212046F8
:10137000FFF724FC206840F400202060314620461E
:10138000FFF7F0FA01212046FFF702FB68881228D8
:1013900003D1064901F11600DCE770BD00100140E1
:1013A0004064024024000020000030109000002023
:1013B00070B50B4D40F22551284600F07FF82C1DEA
:1013C00008B1208820884FF41871284600F076F87C
:1013D00010B1284600F006F92888208870BD00006A
:1013E00000140140C943018070470029818902D05F
:1013F00041F4005101E021F4005181817047002A3D
:10140000828A01D00A4300E08A438282704700004A
:10141000224910B5884206D101211020FFF792FC25
:101420000021102020E01E49884202D101214C04F5
:1014300029E01C49884202D101218C0423E01A4989
:10144000884202D10121CC041DE01849884202D112
:1014500001210C0517E01649884209D101212020FD
:10146000FFF770FC00212020BDE81040FFF76ABCA8
:101470001049884202D101218C0704E00E498842BC
:101480000AD1012144052046FFF744FC2046BDE86F
:1014900010400021FFF73EBC10BD000000100140CD
:1014A0000044004000480040004C00400050004014
:1014B0000014014000780040007C004002460020FB
:1014C00012880A4200D00120704770B501F01F0554
:1014D00001260024C1F3421306FA05F2012B0FD0B6
:1014E000022B0FD0838A4FEA11210088134206FA9B
:1014F00001F600EA060001D000B10124204670BDCB
:101500008389F0E7038AEEE710B5C1F3421301F0D7
:101510001F040121A140012B07D0022B07D014305A
:10152000002A026805D00A4304E00C30F8E71030C6
:10153000F6E78A43026010BD7FB50446008A0D4677
:10154000C98820F4405001432182A08941F20C61F6
:101550008843A9882A8911436A8902431143A181DA
:10156000A08A20F44071A8890843A0826846FFF74A
:10157000F5FB1A48844202D01948844201D10398ED
:1015800000E00298A189090400EBC00101EB001002
:10159000296801D5490000E08900B0FBF1F0642220
:1015A000B0FBF2F109010B096FF018056B4300EB7A
:1015B0008300A3891D044FF0320306D503EBC0005E
:1015C000B0FBF2F000F0070005E003EB0010B0FB09
:1015D000F2F000F00F00084320817FBD00100140B1
:1015E000001401408088C0F308007047FEE770B522
:1015F000044690F8690D154600EB400606EB801096
:1016000004EB8000049AC0F80815002180F8111638
:1016100080F81026C0F80C55194600F5A260FEF7B8
:1016200037FE94F8690D401C00F0070084F8690D3E
:1016300070BD70B5054690F8680D86B000EB4001AE
:1016400001EB801005EB8004D4F80C05009000201D
:101650008DF808008DF8090094F8100694F811161A
:1016600004F5A164401A082818DD08208DF80A0046
:1016700094F8091104F1080008440168CDF80B1032
:101680004068CDF80F0094F809016946083084F8E5
:1016900009012068FFF7F5F806B070BDC6B28DF8F5
:1016A0000A6094F8091104F10800014432460DF172
:1016B0000B00FEF7EDFD94F809016946304484F80B
:1016C00009012068FFF7DDF895F8680D401C00F06F
:1016D000070085F8680DDFE790F8681D01EB41020F
:1016E00002EB811200EB820290F8690D02F5A16213
:1016F000884207D192F8090192F80811884201D175
:10170000012070470020704710B5044602F02AF807
:1017100002F09EF8002084F8680D84F8690D02201C
:1017200084F86A0D10BD70B5054690F96A4D04E065
:101730002846FFF77EFF641E64B2002C04DD2846B5
:10174000FFF7CAFF0028F3D070BD00000A4810B5AB
:101750000078C0070DD1084801F085FF48B107485F
:1017600002234FF42172064901F06BFF0248AFF3E8
:101770000080024810BD0000400000204C090020FD
:101780008318000810B5044601F09EFD05220121D2
:1017900001F0D8FC10B100F0F3FC09E001F094FD79
:1017A0000722012101F0CEFC002807D001F006F944
:1017B00001462046BDE8104002F0B8BB10BD10B590
:1017C000044601F0FBF8026861681268904700F077
:1017D000D7FC026861681268904701F0EFF8A060DA
:1017E00010BD10B5044601F021F994F805212346F7
:1017F000BDE81040002100F02DBA80F8051101214C
:1018000080F8241201688968084770B50446B0F86A
:1018100026020025B0F5907F03D0B0F5987F00D167
:10182000012501F007FA94F8052123462946BDE871
:10183000704000F00FBA80F80521012280F82422C0
:10184000A0F82612016889680847000010B501F069
:10185000C5FE0149016010BDDC4D000810B504460D
:1018600090F88102142200EB800004EB8000FEF768
:1018700054FD94F88102401C00F01F0084F881029E
:1018800010BD002180F8801280F88112704700009E
:10189000214810B50078C0073CD11F4801F0E3FE95
:1018A000C0B31E480022114680F8092680F80A2697
:1018B00080F80B2680F80C26A0F80E2680F810265B
:1018C00080F8112680F81226A0F81426C0F81826F1
:1018D000C0F81C2600F5C46001EB410300EB830354
:1018E000491C1A728129F7DB80F80C26002100F5CB
:1018F000C26001EB410300EB8303491C1A7281298A
:10190000F7DB80F80C2680F8102680F811260248B4
:10191000AFF30080014810BD44000020B81600203D
:101920002DE9F04107460025002407EB050807EBE9
:10193000C51609E056F8240001680968884756F87A
:1019400024000121641C417698F88001A042F1DC5A
:101950006D1C032DE8DB012087F88301BDE8F081D1
:101960002DE9F04107460026002507EB06082EE08A
:1019700007EBC61050F82540607E38B3204601F0D2
:10198000FBFD207AC8B9E07EB8B1206881682046A6
:10199000884790B112480078C0070BD1104801F079
:1019A00062FE38B10F4800210160012141600C48FE
:1019B000AFF300800B480068E061A07E30B1206882
:1019C000416820468847204601F0D0FD6D1C98F8FC
:1019D0008001A842CCDC761C032EC5DBBDE8F0817B
:1019E0007000002074000020094810B50078C0077E
:1019F0000BD1074801F037FE38B1064800210160DD
:101A0000012141600248AFF300800248006810BD28
:101A1000700000207400002010B590F88331002B76
:101A200006D1841894F88031202B02D3FF2048720D
:101A300010BD00EBC2104B7240F8231094F88001E7
:101A4000401C84F8800110BD70B50D4604464FF46B
:101A5000C0720B49FEF761FC094A121F1088A4F8F6
:101A60008001907884F88201064A002084F883017E
:101A7000107800B9556001201070204670BD00003C
:101A8000404300082800002000EE101A9FED061ABF
:101A9000B8EE400AC0EE010A9FED041A9FED040A59
:101AA00010EE810A7047000000FF7F4700004843A6
:101AB0000000C84210B504461422001DFEF72DFC9C
:101AC0000F480078C0070BD10D4801F0CCFD38B1AC
:101AD0000C4800210160012141600948AFF30080FA
:101AE00008480068A061E17B207C01EB01210844EB
:101AF00081B22046FFF7C8FF84ED080A10BD000040
:101B0000700000207400002010B59FED110A0446FB
:101B100080ED080A0F48C4E909120078C0070FD108
:101B20000C4801F0A0FD58B10B480C49022302C03B
:101B30004FF4C2620A4901F084FD0648AFF3008009
:101B4000D4E909122346BDE81040034800F07EBBEB
:101B500000000000500000209C290020984E000842
:101B60001940000801207047704710B50446C07E38
:101B700030B101F0F7FBD4E907121144884201D9D2
:101B8000012010BD002010BD074B10B50A461B6890
:101B9000002101F007FD054901600021C176C16106
:101BA0006421016210BD00002C000020004E0008DE
:101BB00010B504461422001DFEF7AFFB094800785B
:101BC000C0070BD1074801F04EFD38B1064900208F
:101BD0000860012048600348AFF3008002480068B5
:101BE000A06110BD70000020740000200349016056
:101BF000002181616421C16170470000144E00081A
:101C000070B50446D0F80C0400281ED00025B0F5AD
:101C1000806F12D30D48C4F80C540078C0070AD165
:101C20000A4801F020FD30B109484FF4DC71016031
:101C30000648AFF3008001F08FFD20680168204660
:101C40008847002801D0C4F80C5470BD88000020DB
:101C50008C00002010B4144642688A420ED993F8D2
:101C60002422002A0AD040F2C5128068514300EBBA
:101C7000C100214610BC1A4600F08CB810BC704759
:101C80000021C0F80C14704770B50546002408E028
:101C900040F2C510A968604301EBC00000F0A0F855
:101CA000641C6868A042F3D870BD10B41446426842
:101CB0008A420AD940F2C5128068514300EBC10044
:101CC000214610BC1A4600F0EDB810BC7047000069
:101CD000024AC0E90021002181607047204E0008BF
:101CE00070B590F8155A8123B5FBF3F103FB11523F
:101CF00002EB420150F82110A94213D01146521CA8
:101D0000B2FBF3F403FB142202EB420450F824600C
:101D1000AE4207D000EB8404247A0CB18A42EED1A3
:101D20004FF0FF32511C4FF0000517D0D1B201EB3C
:101D3000410200EB8204241D002C26D090F8111AD9
:101D400023680831CAB200F52161184601F042FC4F
:101D50000E4826680078C00702D00CE02C46EBE75E
:101D60000A4801F080FC30B109480121C0E9005166
:101D70000648AFF3008006480068C6F81C022068D9
:101D800001680968BDE87040084770BD7000002018
:101D90007400002030B590F80C36812B1FD28124BE
:101DA000B1FBF4F304FB131304E05B1CB3FBF4F589
:101DB00004FB153303EB430500EB85052D7A002D5D
:101DC000F3D103EB430400EB840301251D725A6039
:101DD00040F8241090F80C16491C80F80C1630BD01
:101DE0002DE9F047044690F8189E00F52168002779
:101DF00000F5616650E004F5C261455CB4F81C0E64
:101E0000B0F5806F12D200F80850B4F81C0E401CD8
:101E100081B2A4F81C1EB4F8200E814206D14046BF
:101E200001F0DCF810B12046FFF75AFF94F8240EB9
:101E300018B3B4F81E0E8555B4F81E0E401C81B2BE
:101E4000A4F81E1E052918D184F8247E304601F01E
:101E50009BF880B140F61160005D0830A4F8200EB8
:101E6000D4F8100EC4F8100A94F8140E84F8140A6A
:101E70000520A4F81C0EA4F81E7EA52D05D1012076
:101E800084F8240EBD55A4F81E0EB4F8160E401C9E
:101E9000C0F30900A4F8160EB4F8160E4845AAD1EE
:101EA000BDE8F08770B5002300F5C2650BE0B0F81F
:101EB000186ECC5C7455B0F8184E641CC4F3090459
:101EC000A0F8184E5B1C9342F1D370BD70B5002191
:101ED0000D4601EB410200EB8202491C157281297B
:101EE000F7DB80F80C5604464FF480663246124900
:101EF00000F5C260FEF711FA3246104904F5216080
:101F0000FEF70BFA0E480168C4F8101E007984F839
:101F1000140EA4F8165EA4F8185EA4F81A5EA4F8CD
:101F20001C5EA4F81E5EA4F8205EA4F8225E84F86D
:101F3000245E204670BD0000C8450008C84900085E
:101F4000C044000870470000044B10B50A461B68E7
:101F5000022101F027FB0249016010BD2C00002086
:101F6000344E0008DFED080A9FED081A30EE200A13
:101F7000C0EE010A9FED060A20EE800ABCEEC00A00
:101F800010EE100A80B270470000C84200004843BB
:101F900000FF7F4700EE101A9FED061AB8EE400AC8
:101FA000C0EE010A9FED041A9FED040A10EE810AAB
:101FB0007047000000FF7F47000048430000C84210
:101FC00038B504461422001DFEF7A7F916484FF055
:101FD00000050078C0070AD1134801F044FB30B176
:101FE00012480121C0E900510F48AFF300800F48AB
:101FF00001210068A06104F10F000090684600F024
:1020000056FA05460121684600F051FA012168465A
:1020100000F04DFA29462046FFF7BCFF84ED080A80
:102020000098401C009038BD700000207400002013
:1020300010B59FED120A044680ED080A0020A08426
:102040000F48C4E90A120078C0070FD10C4801F00C
:102050000AFB58B10B480C49022302C04FF4C2627C
:102060000A4901F0EEFA0648AFF30080D4E90A12FB
:102070002346BDE81040034800F0E8B80000000027
:10208000500000209C290020984E000819400008AC
:102090003EB5044600200190029094ED080A2046C7
:1020A000FFF760FFA08494ED080A2046FFF75AFF6F
:1020B000010A8DF804108DF8050000208DF80B0042
:1020C0000D480078C0070DD10B4801F0CCFA48B19B
:1020D0000A4802234FF42172094901F0B2FA064876
:1020E000AFF3008008210091D4E90A12034801AB44
:1020F000FFF77DFA3EBD0000400000204C090020A3
:1021000083180008704770477047000010B50C46F0
:1021100001F0DAF890ED030ADFED180A04F58060AB
:1021200020EE200A80ED5B0A01F0CEF805220021A6
:1021300001F008F818B10221D4F8500609E001F0C6
:10214000C3F80722002100F0FDFF20B1D4F85006AB
:102150000121017110BD01F0B7F80622002100F045
:10216000F1FF38B901F0B0F80422002100F0EAFFD5
:102170000028EFD00021D4F85006EAE700004842DA
:10218000084810B50078C00709D1064801F06BFA7D
:1021900028B10548054901600248AFF300800248B4
:1021A00010BD0000480000204C000020504E0008E8
:1021B00070B5064600F5847101F0CEFE351D002491
:1021C00006F50A7607E055F8240018B101680A6898
:1021D00031469047641C95F80001A042F3DC70BDC5
:1021E00010B50446FFF709FB0021C4F8281210BD02
:1021F00070B500F584740546012085F80601214676
:10220000284601F0DEFE05F50A710E46204600F074
:1022100043FC2146284601F0D3FE00242D1D07E093
:1022200055F8240018B101680A6831469047641CCB
:1022300095F80001A042F3DC70BD10B50446FFF72D
:10224000FAFA002184F8281210BD000030B5184DAC
:102250000024A94200D1012404EB441101EB8411B4
:1022600000EB011090F81016001D81291FD2812467
:10227000B2FBF4F104FB112104E0491CB1FBF4F5BD
:1022800004FB151101EB410500EB85052D7A002DAE
:10229000F3D101EB410100EB81040125257263605C
:1022A00040F8212090F80C16491C80F80C1630BD1F
:1022B000006800402DE9F047814634480078C007A7
:1022C0000DD1324801F0CFF948B1314802234FF423
:1022D0002172304901F0B5F92C48AFF30080002499
:1022E000DFF8AC80812520E00746401CB0FBF5F606
:1022F00005FB160000EB400652F826C09C4507D0AF
:1023000002EB8606367A0EB1B842EED14FF0FF30BE
:10231000431C1DD0C0B200EB400002EB8000001D4A
:1023200018B1006802681268904704F0010000EBE1
:10233000401202EBC01008EB800090F8802290F869
:1023400081128A4206D1641C022CEEDBBDE8F087C4
:102350000020E5E702EB8201521C02F01F0200EBB5
:10236000810180F8802204EB441000EB84120B689A
:1023700009EB0212B3FBF5F005FB103000EB400651
:10238000121D52F826609E42C2D0ADE740000020E8
:102390004C090020831800080B4810B50078C007CE
:1023A0000FD1094801F05FF958B1084808490223E4
:1023B00002C04FF4C262074901F043F90248AFF38B
:1023C0000080024810BD0000500000209C29002021
:1023D000984E00081940000870470000044B10B5E3
:1023E0000A461B68012101F0DDF80249016010BDB9
:1023F0002C000020A44E000810B504464069FFF7E9
:10240000F3FAE168DFED120A401A00EE100AB8EEA6
:10241000400A20EE200A84ED040A6069FFF7E4FA1E
:10242000E06094ED020AD4ED040A30EE201A80EE4A
:10243000810AF7EE000A94ED011A70EEC00A60EE10
:10244000810A94ED001A40EE010AC4ED010A10BDA4
:102450006F12833A70B500F584750446042084F841
:1024600006012946204601F0ACFD04F50A71284614
:1024700000F012FB04F22921284600F00DFB04F2C3
:102480002A21284600F00BFB29462046BDE8704073
:1024900001F096BD10B50446FFF7CDF9002084F891
:1024A000280284F829026420A4F82A0210BD10B57D
:1024B00002681378547803EB032323449BB209B1D9
:1024C000921C0260184610BD2DE9F04100F58066AF
:1024D00000F2A45796ED5B0A044687ED000A3846E1
:1024E000FFF78AFF04F2BC5597ED010A284685EDF7
:1024F000000AFFF781FF95ED010A04F2D45420464B
:1025000084ED000AFFF778FF94ED010A86ED5B0A7F
:10251000BDE8F08100F580639FED2B0A93ED5D1A15
:1025200093ED5B2A61EE000A72EE601AF5EEC00AC6
:10253000F1EE10FA01D2F1EE600A61EE012A9FED90
:10254000233A244A22EE800AC0EE032A9FED200A95
:1025500032EE800A10EE101A914201DDB0EE080A48
:1025600022EE011A1C4A11EE101A914203D99FED76
:102570001B1A20EE010AF4EEC01AF1EE10FA02DD89
:1025800030EE800A0AE0B1EE401AF4EEC11AF1EE24
:1025900010FA05D2B1EE601A31EE400A83ED5B0A03
:1025A0009FED0F1A9FED0F0A002100EE810A01EB4B
:1025B000011202EB820200EB8202491C82ED390A11
:1025C0000429F4DB7047000039D65141000048422D
:1025D0009A99993F000040400AD723BC0AD7A33BF1
:1025E0000000484300E0AB451FB500F580610C4694
:1025F00091ED5B1ADFED180A0021B1EE410A8DED75
:10260000000A8DED011A8DED020A8DED031A6B465D
:1026100003EB810292ED000AB0EEC00AB4EEE00ACC
:10262000F1EE10FA01DDF0EE400A491C0429EFDB5F
:1026300084ED5C1A002103EB810292ED000A01EBAC
:10264000011202EB820200EB8202491C82ED0F0AAA
:102650000429F0DB1FBD0000000000000FB50021C1
:102660009FED190A0091019102916B46039101EBD4
:10267000011202EB820200EB8202926BD2ED010AA0
:1026800003EB8102491C60EE800A0429C2ED000AB6
:10269000EDDBDDED030A9DED021A00F5806070EEC2
:1026A000C10AB6EE001A20EE811AC1EE000A9FEDB3
:1026B000071AC0ED5D0A90ED9C0A00EE810A80EDDC
:1026C0009C0AC0ED5E0A0FBD295C8F3C6F12833AF5
:1026D0002DE9F04707462DED048B01200026DFF899
:1026E000F080DFF8F090DFED3C8A9FED3C8ADFED73
:1026F0003C9A8246B1EE029A786106EB061000EB36
:10270000800007EB800404F5B47506F2012065E84B
:10271000288065E8208099F80000C0070FD12D4877
:1027200000F0A1FF58B12F482F49022302C04FF4F7
:10273000C2622E4900F085FF2648AFF30080D5E93C
:102740002012284805F12403FFF780FD84F837A004
:10275000C4ED368A84ED378A84ED389AC4ED399A0F
:10276000761C84ED3A8A042EC7DB00F0ADFDC7F875
:102770004C0600F047FEC7F8500600F043FE00F09C
:1027800021FE00F057FA42F2E0410844C7F854062F
:1027900000F050FA42F210510844C7F8580607F208
:1027A000A4509FED130ADFED130A80ED020AC0ED7D
:1027B000040A18309FED100A80ED020AC0ED040AE9
:1027C000A030BDEC048BBDE8F047FEF7F8BF000079
:1027D0000064004050000020000048440000000059
:1027E00000E0AB459C290020984E000819400008E5
:1027F0009A99193E6F12833ACDCC4C3D10B50446E0
:1028000000F25C60FEF7BEFFD4F86C0620B10268EF
:10281000D4F8601692689047D4F8640620B1026834
:10282000D4F860169268904700F0ECFD01680968E2
:1028300088472046FFF7D8FE2046FFF745FE204692
:10284000FFF768FE04F58061D4F8540691ED5D0A47
:1028500080ED080AD4F85406FFF71AFC2046FFF76B
:10286000FDFE04F14800FFF780F900284FF0090051
:1028700021D001F097F904F5CE70FFF776F9002822
:102880004FF008001AD001F08DF904F53C70FFF705
:102890006CF900284FF0070013D001F083F904F21F
:1028A0004440FFF762F900284FF006000CD0BDE865
:1028B000104001F077B901F0A1F9DCE701F09EF9D1
:1028C000E3E701F09BF9EAE7BDE8104001F096B9B3
:1028D00010B50721FFF782FD0E4940F81C1B0423A9
:1028E0004FF4AA720C4900F0ACFE9FED0C0A00F503
:1028F000797200F5C86182ED610A9FED090A82EDE7
:10290000620A00221C38C1E90102CA600A61054A54
:102910000A6010BDCC4E0008193500080000704256
:1029200000005442D04D00087047000010B5044626
:1029300008480078C00709D1064800F094FE28B185
:10294000054800F08DF90348AFF30080024860604D
:1029500010BD000064000020244A002070470000E1
:1029600070B50D46406842F2105144181048007886
:10297000C0070BD10E4800F076FE38B10D4800219B
:102980000160012141600A48AFF300800948D4E9A1
:1029900006120068114405F58065884204D99FED50
:1029A000060A85ED5B0A70BD94ED080AF9E70000A0
:1029B000700000207400002000000000084810B5DE
:1029C0000078C00709D1064800F04DFE28B105483F
:1029D000054901600248AFF30080024810BD0000C5
:1029E0005400002058000020DC4E000810B50446BA
:1029F00001F096F808B1002010BDB4F80C0481B2C3
:102A000004F10C0001F062F8012010BD10B504467D
:102A100000F0BEFF2046FFF733F941F23820204492
:102A2000BDE810400121FFF7DBBB0000084810B5EE
:102A30000078C00709D1064800F015FE28B1054806
:102A400000F00AF80248AFF30080024810BD000011
:102A500060000020C035002010B50121FFF738F9D3
:102A60000B49016000F58260FFF730FA41F238212E
:102A7000A0F58260084400F0B1FD064A01460260FC
:102A8000A0F590503838A1F62861816010BD000093
:102A9000F44E0008684E0008082200F031B818B55E
:102AA0000C460222694600F00DF8BDF800002080B7
:102AB00018BD18B50C460422694600F003F80098CA
:102AC000206018BD07B5D20001A900F001F80EBDC5
:102AD00070B5144606460D6806E0082229463046C1
:102AE00000F00EF8083C6D1C082CF6D8002C06D01F
:102AF000224629463046BDE8704000F001B870BD5E
:102B0000F0B504684FF0FF0EA718E30804F00704BF
:102B10000EFA04F5EE43456815F803C02CFA04FCE0
:102B20005B1C0EFA02FEEB5C33404CEA030C2CEA11
:102B30000E0C81F800C00760F0BD0022C0E9002142
:102B4000704730B40C688B7A01F10B02B4F5907FBA
:102B500003D0012130BCFFF7A8B80021FAE700003C
:102B600038B5044610480078C0070DD10E4800F073
:102B70007AFD48B10D4802234FF421720C4900F050
:102B800060FD0948AFF30080D4F80C1400914FF4B5
:102B900002510648095904F10C034FF49072FEF7F4
:102BA00026FD012038BD0000400000204C09002017
:102BB000831800082DE9F0410446FFF7EDFB04F50A
:102BC000005504F582634FF4907655F8801F1F4638
:102BD0003246FFF73BFBFFF7DFFB3B464FF49872B3
:102BE0002968FFF733FB2046FFF74AF842F28400DA
:102BF000992231462044FFF720FB0C4D42F2E04081
:102C0000182229462044FFF713FA42F210501022EE
:102C100029462044FEF778FF42F2B0203146204496
:102C2000BDE8F0411F22FFF735BC000000680040FE
:102C3000FFF72AB8084810B50078C00709D1064840
:102C400000F011FD28B1054800F00AF80248AFF382
:102C50000080024810BD000064000020244A0020CB
:102C600010B50221FFF734F800F58260FEF7BEFFD1
:102C7000A0F58260194901601831C0F810140223D0
:102C800040F62862164900F5866000F0DAFCA0F5EF
:102C900086604FF40251134A0A50091D0844FEF79A
:102CA000D5FD1149016000F50B70FEF7CFFD0F490E
:102CB000016000F50C70FEF799FF0D4940F8301BDC
:102CC000FEF794FF01460B4A0260A0F5145010383D
:102CD000A1F50051E039816010BD0000084F0008E7
:102CE000CD1E000800680040804E0008B44E000869
:102CF000444E0008F44D000810F8881F00220270AE
:102D00000846704710B504462430FEF751FF0120F5
:102D100084F8880010BD0121C1767047B0F83310E7
:102D2000DFED310A49BAA0F87010B0F83520DFEDB8
:102D30002D2A52BA13B2A0F87230B0F8372052BA26
:102D4000A0F8742090F8392080F8762090ED120ACF
:102D500080ED130A00EE101A90ED1E1AF8EE401ADC
:102D6000B0EE600A80ED1F1A90ED152A11EEA20A4E
:102D700080ED162ADFED1E1A80ED1E0A30EE410AA4
:102D80009FED1A1AB4EEE00AF1EE10FA02DC07E049
:102D900030EE610AB4EEE00AF1EE10FAF8DC0CE075
:102DA000B4EEC10AF1EE10FA02D306E030EE210AC9
:102DB000B4EEC10AF1EE10FAF8D330EE020ADFEDFC
:102DC0000D0A80ED150A00EE103AB8EEC00A20EEAA
:102DD000200A80ED120A00EE102AB8EE400A80EDBB
:102DE0001B0A7047488B27380C86273E0C8627BE67
:102DF0000C86A73E1DB1B23B10B50221FEF7C4FE02
:102E000000F1240100226423C1E906239FED110A89
:102E1000114980ED120A80ED130A80ED150A80ED4C
:102E2000160A80ED180A80ED190A80ED1B0A016070
:102E30001831416280F85C20012380F8503080F81E
:102E4000443080F8683080ED1E0A80ED1F0A80F85B
:102E5000882010BD000000002C4F00080022C0E9AF
:102E60000021704770B50F4CA14201D0012100E054
:102E7000002101EB4104A2F2012200EBC40505EBA5
:102E80004205D617AB80044402EB9676012504EB8D
:102E9000A604002984F8345002D1042A00D1838189
:102EA00070BD0000006400402DE9F04F85B0804601
:102EB000002595B12B4805EB450A834600240AEB13
:102EC000080909EB040797F83400E0B3002034B197
:102ED000012C07D0022C0AD107E02348EBE74FF47E
:102EE000007004E040F2FF1001E040F2FF200026F5
:102EF00000908DF808608DF8096008208DF80A00B0
:102F000008EBCA0000EBC4008188090A8DF80B1099
:102F100001798DF80C10C188090A8DF80D1081799E
:102F20008DF80E100189090A8DF80F10017A8DF8BD
:102F300010104189090A8DF81110807A8DF812005D
:102F40006946584600E003E0FDF79BFC87F83460D3
:102F5000641C032CB5DB6D1C022DAADB05B0BDE89B
:102F6000F08F0000006800400064004010B5054C80
:102F700003E010F8013B5340E25C491EF9D21046D1
:102F800010BD00003C40000830B50C4605000CD0D8
:102F9000022C0AD9FF22611EFFF7E8FF291911F858
:102FA000011C814201D1012030BD002030BD000054
:102FB00010B558B1084C491E0BD310F8013B5340D3
:102FC000DBB234F8133083EA1222F4E74FF6FF70D5
:102FD00010BD104610BD00003C41000830B50C4645
:102FE000050013D0022C11D94FF6FF72A11EFFF776
:102FF000DFFF2919C2B211F8023C9A4206D111F83A
:10300000011CB1EB102F01D1012030BD002030BDDB
:1030100010B50446007810B1012837D060E094ED77
:10302000100A84ED110A94ED0F1A84ED101A94ED34
:10303000060AD4ED070A70EE600AC4ED0F0A94ED9B
:10304000010A20EE200A84ED090A94ED0A0AD4ED63
:10305000021A01EEA00A70EEC10A84ED0A0AD4ED4C
:103060000D1AC4ED0E1AD4ED0C1AC4ED0D1AC4EDF0
:103070000C0A94ED031A61EE200AC4ED0B0AD4ED9C
:10308000050A00F05FF984ED0A0A29E094ED0F0AC1
:10309000D4ED100AD4ED011A30EE601A21EE211A97
:1030A00084ED091A94ED021A21EE001A84ED0A1A31
:1030B00094ED0D1A84ED0E1A94ED0C1A84ED0D1A90
:1030C000B0EE001A00EEC10AD4ED110A30EE200A6B
:1030D00084ED0C0AD4ED030A20EE800A84ED0B0A7D
:1030E00094ED090AD4ED0A0A30EE200AD4ED0B0A59
:1030F00030EE200A84ED080AD4ED040A00F022F92B
:1031000084ED080A10BD000000219FED0D0A01703A
:1031100080ED010A80ED020A80ED030A80ED040AC9
:1031200080ED050A80ED0E0A80ED0D0A80ED0C0A97
:1031300080ED110A80ED100A80ED0F0A7047000043
:10314000000000000844042A0BD0052A12D0062AE9
:1031500019D0072A1CD090F83000904220D10120CD
:10316000704790F8321001291AD190F830000328E6
:10317000F5D015E090F83210032911D190F8300005
:103180000228ECD00CE090F832100229EDD007E0D4
:1031900090F83210032903D190F830000128DFD0D5
:1031A0000020704700EE101A9FED0B1AF8EEC00ACF
:1031B00080EE810AD0ED060AF4EEC00AF1EE10FAB4
:1031C00008DDF1EE600AF4EEC00AF1EE10FA01D269
:1031D0009FED020A70470000000025440000000037
:1031E00010B530F81C3F438050F8181C8A8A0280C2
:1031F000047A44728C7C0472847AC472CC7C8472AB
:10320000447DC475CC7A4475047D8475897A0175D2
:1032100082EA030122EA030383809143C18010BD47
:1032200000B502464068B0F904101046FFF7BAFF37
:1032300082ED020A5068B0F906101046FFF7B2FF9F
:1032400082ED030A5068B0F900101046FFF7AAFF9C
:1032500082ED040A5068B0F902101046FFF7A2FF91
:1032600082ED050A00BD000010B5044600F0FAFD2D
:1032700000F000FE606009480078C00709D10748E7
:1032800000F0F1F928B1064800F034F80348AFF334
:103290000080BDE8104000F039BD00006C00002047
:1032A0009C6F002010B5044600F0D4FD00280AD021
:1032B00000F058F8A0622046FFF7B2FF2046BDE8B4
:1032C0001040FFF78DBF10BD084810B50078C0074B
:1032D00009D1064800F0C7F928B1054800F00AF8FE
:1032E0000248AFF30080024810BD00006C000020CF
:1032F0009C6F002010499FED110A016080ED020AC9
:1033000080ED030A80ED040A80ED050A9FED0C0AAA
:10331000002180ED060A8183C1830184418480F805
:10332000241080F8251080F8261080F8271081627C
:103330006421C162704700005C4F0008000000007B
:10334000CDCC4C3DB4EEE00AF1EE10FA06DCF1EE25
:10335000600AB4EEE00AF1EE10FA01D2B0EE600AB3
:1033600070470000094810B50078C0070BD1074826
:1033700000F079F938B1064800210160012141606F
:103380000248AFF300800248006810BD70000020C2
:1033900074000020094810B50078C0070BD1074819
:1033A00000F061F938B10648002101600121416057
:1033B0000248AFF30080024810BD000070000020FA
:1033C0007400002010B500F045FCBDE8104000F08E
:1033D000BFBA0179012905D0022905D0002905D1FC
:1033E00000F082BC00F003B800F022B8704710B5BE
:1033F00000F080FC00F0A6FABDE810403E2000F08E
:103400007FBC0000084810B50078C00709D1064805
:1034100000F029F928B1054800F014F80248AFF38C
:103420000080024810BD00007C00002080000020C9
:1034300010B500F05FFC00F0A5FABDE810403E209A
:1034400000F05EBC0249016000210171704700007C
:10345000684F000870B50446C07E022802D094ED83
:10346000080A10E094ED090A84ED460AE06990ED3F
:10347000040A04F5807084ED470AFFF7C9FD94ED56
:10348000480A84ED080A84ED340AE06990ED010AE7
:1034900004F1B80084ED350AFFF7BAFD94ED360A61
:1034A00084ED520AE07E18B99FED170A84ED520AA6
:1034B00016480078C00718D1144800F0D4F8A0B11D
:1034C000134D144800210A46286001EB41030020F7
:1034D0002B441E18401C86F834200328F9DB491CB5
:1034E0000229F2DB0948AFF3008094ED520A084844
:1034F000BDEEC00A10EE101A0BB2D4E95312BDE8AB
:103500007040FFF7AFBC0000000000006800002022
:10351000606F0020504F000810B50121FEF714FD28
:103520000024C4760F49C46140F82C1BFFF764FCEB
:103530008C30FFF7E9FD4830FFF7E6FDA0F1900180
:1035400040F8E41C9FED080A00F8E54C00ED370A4E
:1035500000ED380A00ED360A80ED120AA0F5807001
:1035600010BD0000744F00080000000041690161B7
:10357000002181767047704710B50446407E0028D0
:103580000ED0A07E00280BD1206938B1401E2061EA
:10359000FFF7E8FEE0602069002801D10120A07655
:1035A00010BD000070B504460948C4E9000321724B
:1035B00000200125E060C4E9040522766076A0764B
:1035C0000A4618462146FEF727FA204670BD00003D
:1035D000844F000800F58C70FCF75ABE70B50446A5
:1035E000061D4FF4807211493046FCF796FE002507
:1035F00086F800510E482060FF2084F8050184F809
:10360000065104F58C7104F58470FFF796FA00F109
:1036100010010830FFF722FCA0F808516421C0E92E
:10362000435180F81451A0F5887070BDC84400085B
:10363000944F0008A0F58260FFF783BA2438FFF7A3
:1036400061BB2DE9F0411C4617460E00804607D0AD
:10365000054602E02846B0473D442046641EF9D2A4
:103660004046BDE8F081016809B1002070470121A2
:103670000160084670470020FCF796BE0B4810B565
:1036800001220146FEF7E0F900F5C270FFF720F9CC
:10369000FFF71AFE064C2060FEF758F86060FFF74F
:1036A000C9FAA060FFF7C2F9E06010BDF000002089
:1036B0003000002070B58AB001214020FDF71EFBCC
:1036C00001218020FDF70EFB1E4E09220621304607
:1036D000FDF7B3FA4020022500908DF80450002435
:1036E0008DF8064003208DF805008DF807406946E7
:1036F0003046FDF766FA40F22B1003904FF42A7023
:10370000ADF80800ADF81040ADF80A400E4C02A923
:103710002046FDF74BFD6021ADF814100120ADF8F7
:103720001600ADF8205005A92046FDF7DFFC06493C
:1037300096203431086000212046FDF7CDFC0AB008
:1037400070BD0000001C024000180040002101482C
:10375000FDF7C2BC0018004001210148FDF7BCBCC8
:10376000001800402DE9F04105278AB03E460121AE
:103770000820FDF7B7FA01214C062046FDF7BEFAF6
:1037800001212046FDF7C6FA00212046FDF7C2FAC6
:1037900002218DF82010032000248DF822408DF89E
:1037A0002100DFF8A480079001258DF8235007A998
:1037B0004046FDF706FA092200214046FDF73DFA92
:1037C000092201214046FDF738FA8DF812408DF8A4
:1037D00013408DF81640ADF810608DF817501B4E51
:1037E0008DF8147006948DF8155004A93046FCF736
:1037F0008DFF8DF80A408DF80B408DF80C50ADF818
:103800000040ADF80440ADF80240ADF80640ADF818
:1038100008408DF80D506846FCF7B6FE01220221E3
:103820003046FCF76BFF14208DF8240004208DF83F
:1038300025008DF826408DF8275009A8FDF714FAC9
:103840000AB00020BDE8F081000C02400064004096
:103850002DE9F04105278AB03E4601210220FDF7FF
:1038600041FA01218C062046FDF748FA0121204645
:10387000FDF750FA00212046FDF74CFA4FF4405076
:10388000079002208DF8200000248DF822400320AC
:103890008DF82100DFF8A48001258DF8235007A9B9
:1038A0004046FDF78EF909220C214046FDF7C5F987
:1038B00009220D214046FDF7C0F98DF812408DF820
:1038C00013408DF81640ADF810608DF817501C4E5F
:1038D0008DF8147006948DF8155004A93046FCF745
:1038E00015FF0E208DF80A008DF80B408DF80C5056
:1038F000ADF80040ADF80440ADF80240ADF8064028
:10390000ADF808408DF80D506846FCF73DFE0122E9
:1039100002213046FCF7F2FE40208DF824000420FE
:103920008DF825008DF826408DF8275009A8FDF761
:103930009BF90AB00020BDE8F081000000040240BD
:103940000068004004210148FDF789B900000240E9
:103950001CB501210846FDF7C5F90420009001209F
:103960008DF8040000208DF8060003208DF8050076
:1039700002208DF8070069460148FDF722F91CBDB9
:103980000000024004210148FDF767B90000024031
:10399000F0B597B001214948FDF7A4F90121CC0702
:1039A0002046FDF7ABF901212046FDF7B3F90021D0
:1039B0002046FDF7AFF9424D082200212846FDF7C9
:1039C0003CF9082201212846FDF737F902208DF83D
:1039D0005400032100248DF856408DF855101491A1
:1039E0008DF8574014A92846FDF7EBF8354D2846C9
:1039F000FDF70EFD4FF461201090ADF848400C200B
:103A0000ADF84440ADF84A00ADF84640ADF84C4042
:103A100010A92846FDF790FD012240F225512846C5
:103A2000FDF772FD012280212846FDF7E8FC012107
:103A30002846FDF7DAFC53208DF83C0004258DF86C
:103A40003D508DF83E4001268DF83F600FA8FDF7F0
:103A50000BF901214805FDF745F91B4F3846FCF7E6
:103A6000A1FF4FF02060009016486946001D0190AC
:103A700040200390C000CDE904044000CDE90604D5
:103A8000C0010894CDE909400B940C940D9438467C
:103A90000E94FDF769F8012210213846FDF74EF823
:103AA0000B208DF83C008DF83D508DF83E408DF890
:103AB0003F600FA8FDF7D8F817B0F0BD1000200048
:103AC00000100240007C0040106002402DE9F041EF
:103AD000114D0F4606460F492846FDF715F80E4CC6
:103AE000103C012801D10820A06000212846FCF7E5
:103AF0004FFFE66139462846FDF760F80121284668
:103B0000FCF746FFBDE8F041012280210348FDF7A4
:103B100076BC00000800001010600240007C0040ED
:103B200010B504490448FCF7EFFF012800D000203D
:103B300010BD000020000010106002401CB50121E3
:103B40002020FDF7CFF84FF48040009001208DF841
:103B5000040000218DF8061003218DF805108DF862
:103B6000070069460C48FDF72CF801211020FDF7ED
:103B7000B9F84FF40060009069460848FDF721F855
:103B800001214020FDF7AEF84FF4FF700090694628
:103B90000348FDF716F81CBD001402400010024057
:103BA00000180240014612480A2920D2DFE801F03D
:103BB00009050D0F11131517191B4FF480410D48FE
:103BC00013E04FF400610C480FE002210DE00421E6
:103BD0000BE0082109E0102107E0202105E0402149
:103BE00003E0802101E04FF48071FDF738B87047A1
:103BF0000018024000140240001002400146124822
:103C00000A2920D2DFE801F009050D0F111315175D
:103C1000191B4FF480410D4813E04FF400610C482C
:103C20000FE002210DE004210BE0082109E0102142
:103C300007E0202105E0402103E0802101E04FF46E
:103C40008071FDF70AB87047001802400014024066
:103C50000010024070B58AB001210420FDF74EF833
:103C600001210820FDF73EF81D4D02220F212846B4
:103C7000FCF7E3FF4FF40040022600908DF804604B
:103C800000248DF8064003208DF805008DF80740CC
:103C900069462846FCF795FF4A20ADF80800ADF8C4
:103CA0001040ADF80A400F4C7C25039502A9204630
:103CB000FDF77CFA6020ADF814000120ADF8160085
:103CC000ADF8206005A92046FDF740FA05483430DC
:103CD000056000212046FDF7FFF90AB070BD000025
:103CE000000C02400008004000210148FDF7F4B933
:103CF0000008004001210148FDF7EEB9000800402E
:103D00000149086070470000340800400121014863
:103D1000FDF76BBB001001402DE9F0478A46804655
:103D200090B0914601214648FCF7DCFF01211020AC
:103D3000FCF7FCFF01211020FDF704F80021102002
:103D4000FDF700F83F4D072211462846FCF775FFA6
:103D50008020049002208DF8140000248DF8164075
:103D600003208DF815008DF8174004A92846FCF7AC
:103D700028FF354F3846FDF74BFB2E153348009092
:103D8000ADF80440ADF808600425ADF80640ADF884
:103D90000A50ADF80C4069463846FDF7CDFB0122CC
:103DA00040213846FDF72BFB10213846FDF71AFB62
:103DB000012240F224413846FDF7A6FB0121384696
:103DC000FDF713FB25208DF800008DF801508DF8CC
:103DD000024001208DF803006846FCF745FF1C4DAA
:103DE0002846FCF7DFFD70040090381DCDE9028401
:103DF0000190CDF81090CDE905468015CDE9084039
:103E00004FF44030CDE90A0407940C940D946946B0
:103E100028460E94FCF7A8FE002251462846FCF7DF
:103E20005DFE01212846FCF74FFE00212846FCF7E5
:103E3000AFFD01212846FCF7ABFD10B0BDE8F087CF
:103E4000020040000004024000100140A086010072
:103E5000406402400249002208780A70704700005E
:103E60002400002002492422A1F12400FFF754BFBE
:103E7000CA00002000487047900000204FF4E06026
:103E8000FCF724FF25480078C0070AD12348FFF734
:103E9000EAFB30B122484FF4DC7101601F48AFF3F8
:103EA0000080FFF707FCFFF751FCFFF747FE0024F7
:103EB000E0B2FFF777FE641C092CF9DDFFF704FA86
:103EC000FFF7D2F9FDF742FCFDF71EFCFEF7B2FE4C
:103ED000016889688847FEF7A9FD016889688847F5
:103EE0001048FDF71DFD0124FFF754FA4460FFF769
:103EF00051FAA01FFDF746F80B484FF4FA5100683D
:103F0000B0FBF1F14FF0E020026942F002020261E1
:103F10004161016941F001010161FEE78800002073
:103F20008C000020F00000201000002070B50D0073
:103F3000044610D0A068A8420DD0E06018B1026815
:103F40006168D2689047A5602A682846616852680F
:103F5000BDE87040104770BD70B5044686B00420BF
:103F600084F8060100260E600D46A5208DF800009D
:103F700069462846FEF790FD94F806018DF8040086
:103F800001A92846FEF788FDADF8086002A9284679
:103F9000FEF785FD8DF80C6003A92846FEF77CFD31
:103FA00094F805018DF8100004A92846FEF774FD69
:103FB00006B004F50A712846BDE87040FEF779BDE9
:103FC000704770B586B0002405460C600E46A520EB
:103FD0008DF8000069463046FEF75EFD95F8060153
:103FE0008DF8040001A93046FEF756FDADF80840F3
:103FF00002A93046FEF753FD8DF80C4003A9304668
:10400000FEF74AFD95F805018DF8100004A9304629
:10401000FEF742FD06B070BD00210A4601EB4103E8
:1040200000EB8303491C1A728129F7DB80F80C2608
:1040300070474FF04070E1EE100A7047005EBCE23E
:10404000613FDD83C29C7E20A3FD1F419DC3217F74
:10405000FCA2401E5F01E3BD3E6082DC237D9FC168
:10406000421CFEA0E1BF5D0380DE3C62BEE0025C5C
:10407000DF81633D7C22C09E1D43A1FF4618FAA448
:1040800027799BC584DA3866E5BB5907DB85673934
:10409000BAE406581947A5FB7826C49A653BD98728
:1040A000045AB8E6A7F91B45C6987A24F8A6441A1C
:1040B00099C7257B3A6486D85B05E7B98CD2306E08
:1040C000EDB3510F4E10F2AC2F7193CD114FADF3F4
:1040D000702ECC92D38D6F31B2EC0E50AFF1134DE8
:1040E000CE90722C6D33D18F0C52B0EE326C8ED0DC
:1040F000530DEFB1F0AE4C1291CF2D73CA947628C8
:10410000ABF517490856B4EA6937D58B5709EBB5B3
:1041100036688AD495CB2977F4AA4816E9B7550BA7
:1041200088D6346A2B7597C94A14F6A8742AC8969B
:10413000154BA9F7B6E80A54D7896B3500008911E9
:1041400012239B322446AD573665BF74488CC19DFF
:104150005AAFD3BE6CCAE5DB7EE9F7F881100801DF
:1041600093331A22A5562C47B7753E64C99C408DDF
:10417000DBBF52AEEDDA64CBFFF976E802218B307B
:10418000100299132667AF763444BD554AADC3BCBF
:10419000588ED19F6EEBE7FA7CC8F5D983310A209F
:1041A00091121803A7772E66B5543C45CBBD42AC9F
:1041B000D99E508FEFFB66EAFDD874C904428D5337
:1041C00016619F702004A9153227BB364CCEC5DF7F
:1041D0005EEDD7FC6888E1997AABF3BA85520C435F
:1041E00097711E60A1142805B3373A26CDDE44CF5F
:1041F000DFFD56ECE9986089FBBB72AA06638F72FB
:1042000014409D512225AB343006B9174EEFC7FE3E
:104210005CCCD5DD6AA9E3B8788AF19B87730E621E
:1042200095501C41A3352A24B1163807CFFF46EE1E
:10423000DDDC54CDEBB962A8F99A708B08848195C6
:104240001AA793B62CC2A5D33EE1B7F04008C9190E
:10425000522BDB3A644EED5F766DFF7C89940085CE
:104260009BB712A6ADD224C3BFF136E0C1184809EE
:10427000D33B5A2AE55E6C4FF77D7E6C0AA583B46A
:10428000188691972EE3A7F23CC0B5D14229CB38CE
:10429000500AD91B666FEF7E744CFD5D8BB502A48E
:1042A00099961087AFF326E2BDD034C1C3394A28AE
:1042B000D11A580BE77F6E6EF55C7C4D0CC685D726
:1042C0001EE597F42880A1913AA3B3B2444ACD5B8E
:1042D0005669DF78600CE91D722FFB3E8DD604C74E
:1042E0009FF516E4A9902081BBB332A2C55A4C4B6E
:1042F000D7795E68E11C680DF33F7A2E0EE787F6EA
:104300001CC495D52AA1A3B03882B193466BCF7A4D
:104310005448DD59622DEB3C700EF91F8FF706E60D
:104320009DD414C5ABB122A0B9923083C77B4E6A2D
:10433000D5585C49E33D6A2CF11E780F000000005F
:10434000000000000000000000000000000000006D
:10435000000000000000000000000000000000005D
:10436000000000000000000000000000000000004D
:10437000000000000000000000000000000000003D
:104DD000BF17000800000000000000007736000840
:104DE000000000000B180008371800080000000041
:104DF00000000000B51A00080000000000000000DC
:104E0000691B000879350008651B000800000000D8
:104E100000000000B11B00080000000000000000BE
:104E200077360008891C0008811C0008000000007B
:104E300000000000451F0008793500080000000050
:104E400000000000C11F000800000000000000007A
:104E500007210008092100080D210008052100088C
:104E60000000000000000000B12100080000000068
:104E7000E3170008E1210008000000000000000026
:104E8000F1210008000000000B1800083B22000878
:104E90000000000000000000B52200080000000033
:104EA00000000000D9230008793500080000000048
:104EB0000000000055240008000000000B18000846
:104EC000952400080000000000000000D126000822
:104ED000FD27000800000000000000002D29000848
:104EE0005D29000861290008292900080000000048
:104EF00000000000ED290008891C00080D2A0008A8
:104F00000000000000000000612B0008312C0008A8
:104F1000B52B0008432B0008F0FBFFFF000000004A
:104F2000353600080000000000000000172D0008C2
:104F30001D2D0008F92C0008052D0008DCFFFFFFDF
:104F4000000000003D3600080000000000000000E6
:104F5000A92E00080000000000000000A532000893
:104F60000000000000000000D33300080000000033
:104F700000000000451F0008553400080000000034
:104F800000000000773500087935000800000000B7
:104F900000000000773600087736000877360008F2
:104FA000C44F00080000002090000000E801000845
:104FB00054500008900000204075000004020008D2
:104FC000BDE6FFFF0000000001020304010203042C
:104FD000060708090095BA0A00000000000000005A
:104FE0000102030406070809000000000000000099
:104FF00000000000000000000000000000000000B1
:1050000000000000000000000000000000000000A0
:105010000000000000000000000000000000000090
:105020000000000000000000000000000000000080
:105030000000000000000000000000000000000070
:105040000000000000000000000000000000000060
:04505000000000005C
:04000005080001AD41
:00000001FF
